:100000000C946F010C9497010C9497010C94970138
:100010000C9497010C9497010C9497010C94970100
:100020000C9497010C9497010C9497010C949701F0
:100030000C9497010C9497010C9497010C949701E0
:100040000C9454070C9497010C94AD050C948705FF
:100050000C9497010C9497010C9497010C949701C0
:100060000C9497010C949701E514F014F314F61412
:1000700008152F15A216A216A21635153815251625
:1000800043157215CA15281632150B15A216281518
:10009000A216A2161F152215A216361625153316FE
:1000A000881593157D159E15B415A216BF150E154E
:1000B000A91511151C15B102B702BD02C302C90270
:1000C000CF02D50206040D0414041B0422043904D3
:1000D0002904390430040000000800020100000374
:1000E0000407000000000000000068656C702C2010
:1000F00020202020202020202020202048656C70F7
:10010000207368656574007B6274726564797D2C08
:10011000202020202020202052656164793F007B30
:100120006274766962202A2A2A7D2C2020202020D1
:100130002053657420766962206C6576656C007B5F
:1001400062747774736E202A2A2A2A7D2C2020203C
:1001500020577269746520736E007B6274706F73D0
:100160007D2C2020202020202020202053686F7705
:100170002063757272656E7420706F73007B627499
:10018000707265767D2C2020202020202020204D9C
:100190006F76652050726576696F75732E007B628D
:1001A000746E6578747D2C20202020202020202053
:1001B0004D6F7665204E6578742E007B6274736592
:1001C0007175656E63657D2C20202020205374613D
:1001D00072742073657175656E63652E007B627441
:1001E000676F746F204C4C4C4141417D2C20204363
:1001F0006F6D6D616E6420746F206D6F7665007B2E
:100200006274696E666F7D2C2020202020202020C3
:100210002052657475726E7320646576696365201B
:10022000696E666F2E007B48427D2C2020202020A6
:1002300020202020202020204865617274626561A2
:10024000742E00436F6D6D616E64206C6973740071
:100250003E002073633A30303030002077613A300E
:1002600036353000736E200066773A302E302E31EE
:10027000200068773A7878787820003C62742069AA
:100280006E666F20003C6274696E666F205B41434E
:100290004B5D000000000023002600290000000044
:1002A00000240027002A0000000000250028002B61
:1002B000000404040404040404020202020202030F
:1002C0000303030303010204081020408001020419
:1002D000081020010204081020008C19881911242C
:1002E0001FBECFEFD8E0DEBFCDBF26E0ACE5B4E067
:1002F00001C01D92AE3AB207E1F714E0A0E0B1E010
:10030000E4EFF3E402C005900D92AC35B107D9F7E4
:1003100011E0CEE6D1E004C02197FE010E94BC1F8F
:10032000CD36D107C9F70E94230F0C94ED210C9410
:100330000000CF92DF92EF92FF920F931F93CF9323
:10034000DF936C017A018B01C0E0D0E0CE15DF05B0
:1003500089F0D8016D918D01D601ED91FC9101904C
:10036000F081E02DC6010995892B11F47E0102C0B0
:100370002196ECCFC701DF91CF911F910F91FF9094
:10038000EF90DF90CF900895089580E090E0089579
:10039000FC01538D448D252F30E0842F90E0821B8B
:1003A000930B541710F0CF96089501970895FC0110
:1003B000918D828D981761F0828DDF01A80FB11D9C
:1003C0005D968C91928D9F5F9F73928F90E00895C0
:1003D0008FEF9FEF0895FC01918D828D981731F07A
:1003E000828DE80FF11D858D90E008958FEF9FEFCE
:1003F0000895FC01918D228D892F90E0805C9F4FA4
:10040000821B91098F739927089583E994E00E94D4
:10041000F90121E0892B09F420E0822F0895FC01E5
:10042000848DDF01A80FB11DA35ABF4F2C91848D7D
:1004300090E001968F739927848FA689B7892C93B2
:10044000A089B1898C9180648C93938D848D98134D
:1004500006C00288F389E02D80818F7D8083089516
:10046000EF92FF920F931F93CF93DF93EC0181E004
:10047000888F9B8D8C8D981305C0E889F9898081C0
:1004800085FD24C0F62E0B8D10E00F5F1F4F0F73FC
:100490001127E02E8C8DE8120CC00FB607FCFACFA6
:1004A000E889F989808185FFF5CFCE010E940F028E
:1004B000F1CF8B8DFE01E80FF11DE35AFF4FF08263
:1004C0000B8FEA89FB898081806207C0EE89FF89F2
:1004D0006083E889F98980818064808381E090E08D
:1004E000DF91CF911F910F91FF90EF900895CF93DF
:1004F000DF93EC01888D8823C9F0EA89FB8980812C
:1005000085FD05C0A889B9898C9186FD0FC00FB6FD
:1005100007FCF5CF808185FFF2CFA889B9898C913E
:1005200085FFEDCFCE010E940F02E7CFDF91CF9183
:100530000895CF93DF934770552766277727FA01F1
:100540003197EC01A881B981E730F10520F4E55A33
:10055000FF4F0C94BC1F1496ED91FC91159761E030
:1005600029C01496ED91FC91159765E023C014966F
:10057000ED91FC91159764E01DC01496ED91FC91EE
:10058000159766E017C01496ED91FC91159762E0FF
:1005900011C01496ED91FC9115976AE00BC014966A
:1005A000ED91FC91159768E005C01496ED91FC91D2
:1005B000159769E0DF91CF910994CF93DF93EC0118
:1005C000CB01BA0126E030E040E050E00E949D1FE0
:1005D000623071058105910559F18CF46115710541
:1005E00081059105F1F06130710581059105C1F535
:1005F000E881F9810480F581E02D65E02DC064304B
:1006000071058105910511F1D4F065307105810501
:10061000910531F5E881F9810480F581E02D66E0EE
:100620001BC0E881F9810480F581E02D64E014C0ED
:10063000E881F9810480F581E02D61E00DC0E88159
:10064000F9810480F581E02D63E006C0E881F9813D
:100650000480F581E02D62E0CE01DF91CF91099415
:10066000DF91CF9108954370552766277727DC01E6
:10067000ED91FC910480F581E02D4230510561053A
:10068000710571F0433051056105710559F0413034
:1006900051056105710511F065E005C066E003C014
:1006A0006AE001C069E00994CF93DF93EC01CB01CC
:1006B000BA0123E030E040E050E00E949D1F61302D
:1006C00071058105910581F0623071058105910503
:1006D00091F0672B682B692BC1F4E881F9810480C4
:1006E000F581E02D64E00DC0E881F9810480F58199
:1006F000E02D61E006C0E881F9810480F581E02DFC
:1007000062E0CE01DF91CF910994DF91CF910895FE
:100710004370552766277727DC01ED91FC91048013
:10072000F581E02D423051056105710571F04330CE
:1007300051056105710559F041305105610571059B
:1007400011F062E005C063E003C061E001C060E059
:100750000994CF93DF93EC01E881F9810480F5815E
:10076000E02D8A81811102C060E001C062E0CE010B
:100770000995E881F9810480F581E02D8A81811154
:1007800002C061E001C063E0CE0109958CA59DA582
:100790008230910538F0880F991F880F991F0597AF
:1007A0000197F1F7E881F9810480F581E02D8A81D4
:1007B000811102C060E001C062E0CE01DF91CF9103
:1007C0000994CF93DF93EC0120E030E0A9016C891C
:1007D0007D898E899F890E941B1F18161CF4E8A929
:1007E000F9A902C0EAA9FBA9DF91CF9109940F935F
:1007F0001F93DC011396EC910E2F10E009301105C8
:10080000C0F5F801EE59FF4F0C94BC1FDC01ED91CF
:10081000FC910084F185E02D29C0DC01ED91FC9173
:100820000284F385E02D22C0DC01ED91FC9104846B
:10083000F585E02D1BC0DC01ED91FC910684F78568
:10084000E02D14C0DC01ED91FC910088F189E02DD0
:100850000DC0DC01ED91FC910288F389E02D06C00A
:10086000DC01ED91FC910488F589E02D1F910F9139
:1008700009941F910F9108958EBD00000DB407FEDD
:10088000FDCF8EB508950E94C121FC0124813581E0
:10089000232B31F421E061157105A1F0FB0108C0A3
:1008A000FC01808191816115710531F421E0FC0129
:1008B0008081882339F005C00E94CF2121E0892B57
:1008C00009F020E0822F08950F931F93CF93DF93B9
:1008D000EC0188819981009729F02A813B812617B4
:1008E000370788F48B016F5F7F4F0E94F7200097D6
:1008F00061F0998388831B830A832C813D81232B9C
:1009000011F4FC01108281E001C080E0DF91CF9101
:100910001F910F910895EF92FF920F931F93CF9322
:10092000DF93EC017B018A01BA010E9464042881F3
:10093000398181110DC02115310519F0C9010E94BD
:100940005F20198218821D821C821B821A8206C0B7
:100950001D830C83B701C9010E94D821CE01DF910C
:10096000CF911F910F91FF90EF900895CF93DF9358
:10097000EC016115710559F0FB0101900020E9F7C8
:100980003197AF01461B570B0E948B040CC0888126
:100990009981009711F00E945F20198218821D82B0
:1009A0001C821B821A82CE01DF91CF910895FC0137
:1009B000808191810C945F20FC011182108213824E
:1009C0001282158214826115710551F0FB010190AC
:1009D0000020E9F73197AF01461B570B0C948B04AD
:1009E0000895EF92FF920F931F93CF93DF93CDB7AC
:1009F000DEB72C970FB6F894DEBF0FBECDBFEE2446
:100A0000E39483E994E00E94F901892B09F46CC016
:100A100083E994E00E94D701F82E89831A8200911D
:100A20003405109135050F5F1F4FB80180E395E045
:100A30000E946404882399F020913005309131059B
:100A40008091340590913505BE016F5F7F4F820F15
:100A5000931F0E94D82110933505009334058DE72C
:100A6000F81681F06DEB71E080E395E00E9445049B
:100A7000811108C062EC71E080E395E00E944504BA
:100A8000882379F1E0925C046FE372E0CE0107966F
:100A90000E94DC04CE0107960E94060F811112C04D
:100AA00066E574E0CE0101960E94DC04CE01019659
:100AB0000E94060F11E0811110E0CE0101960E9404
:100AC000D70401C010E0CE0107960E94D70411237D
:100AD00009F497CF6AE574E080E395E00E94B604DC
:100AE00090CF10925C04D0CF2C960FB6F894DEBF56
:100AF0000FBECDBFDF91CF911F910F91FF90EF906F
:100B000008950E94050281110C94F10408951F922A
:100B10000F920FB60F9211242F933F934F935F9331
:100B20006F937F938F939F93AF93BF93EF93FF93B5
:100B300083E994E00E940F02FF91EF91BF91AF9182
:100B40009F918F917F916F915F914F913F912F91E5
:100B50000F900FBE0F901F9018951F920F920FB617
:100B60000F9211242F938F939F93EF93FF93E09114
:100B7000A304F091A4048081E091A904F091AA0457
:100B800082FD12C090818091AC048F5F8F732091A1
:100B9000AD04821751F0E091AC04F0E0ED56FB4F4C
:100BA000958F8093AC0401C08081FF91EF919F915C
:100BB0008F912F910F900FBE0F901F90189590E07E
:100BC000FC01EA52FF4F3491FC01EB53FD4F24919D
:100BD000FC01EF54FD4FE491EE2309F43BC03323B5
:100BE00039F1333091F038F43130A9F0323001F579
:100BF00084B58F7D12C0373091F03830A1F0343099
:100C0000B9F4809180008F7D03C0809180008F7740
:100C1000809380000DC084B58F7784BD09C080911A
:100C2000B0008F7703C08091B0008F7D8093B000BB
:100C3000F0E0EE0FFF1FE955FD4FA591B4918FB77E
:100C4000F894EC91611103C020952E2301C02E2B46
:100C50002C938FBF0895CF92DF92EF92FF920F9364
:100C60001F93CF93DF93FC012381243041F0283080
:100C700031F0233031F0263021F012E003C014E0CF
:100C800001C013E0EC012896E12CF12CC62ED12CEA
:100C900001E0C6010E2C02C0959587950A94E2F7F3
:100CA000688180FD6027FE01349780810E94DF0506
:100CB000FFEFEF1AFF0A2196E11658F3DF91CF916B
:100CC0001F910F91FF90EF90DF90CF900895CF93F9
:100CD000DF9390E0FC01EB53FD4F2491FC01EF54B6
:100CE000FD4F8491882361F190E0880F991FFC01EA
:100CF000E356FD4FC591D491FC01E955FD4FA591F7
:100D0000B491611109C09FB7F8948881209582231E
:100D10008883EC912E230BC0623061F49FB7F89466
:100D20003881822F809583238883EC912E2B2C93FE
:100D30009FBF06C08FB7F894E8812E2B28838FBF02
:100D4000DF91CF910895CF93DF93FC01238122237C
:100D500059F1EC0161E084810E94670661E08D81B8
:100D60000E9467068B81843011F0883039F461E08D
:100D70008E810E94670661E08F8106C0833011F08A
:100D8000863021F461E08E810E9467068FA58F3F37
:100D900059F061E00E9467066EA581E068278FA583
:100DA000DF91CF910C94DF05DF91CF910895CF9320
:100DB000DF93FC0123812223A9F0EC010190F08153
:100DC000E02D0480F581E02D60E009958FA58F3F2F
:100DD00049F061E00E9467066EA58FA5DF91CF9173
:100DE0000C94DF05DF91CF9108953FB7F89480917F
:100DF0007F0490918004A0918104B091820426B573
:100E0000A89B05C02F3F19F00196A11DB11D3FBF42
:100E1000BA2FA92F982F8827820F911DA11DB11DD0
:100E2000BC01CD0142E0660F771F881F991F4A95CC
:100E3000D1F708958F929F92AF92BF92CF92DF9297
:100E4000EF92FF926B017C010E94F5064B015C0161
:100E5000C114D104E104F104F1F00E94F506DC01B3
:100E6000CB0188199909AA09BB09883E9340A105BD
:100E7000B10570F321E0C21AD108E108F10888EE4B
:100E8000880E83E0981EA11CB11CC114D104E1049A
:100E9000F10419F7DDCFFF90EF90DF90CF90BF9076
:100EA000AF909F908F9008951F920F920FB60F9260
:100EB00011242F933F938F939F93AF93BF93809170
:100EC0007B0490917C04A0917D04B0917E043091CC
:100ED0007A0423E0230F2D3720F40196A11DB11DC4
:100EE00005C026E8230F0296A11DB11D20937A04A8
:100EF00080937B0490937C04A0937D04B0937E0444
:100F000080917F0490918004A0918104B09182042B
:100F10000196A11DB11D80937F0490938004A0933E
:100F20008104B0938204BF91AF919F918F913F91C3
:100F30002F910F900FBE0F901F9018952F923F92F8
:100F40004F925F926F927F928F929F92AF92BF92D9
:100F5000CF92DF92EF92FF920F931F93CF93DF9385
:100F600000D000D0CDB7DEB71C01FC01C088D1880D
:100F7000E288F38884859585A685B785C81AD90A3D
:100F8000EA0AFB0A64897589868997899B01AC0105
:100F90000E94E11C4B015C01F101648D758D868D11
:100FA000978D9B01AC010E94071E9B01AC01C501FE
:100FB000B4010E94731E0E94E51EC114D104E10415
:100FC000F104A1F462307105810591050CF07CC03B
:100FD000F10114A215A216A217A2148A158A168A64
:100FE000178A14AA15AA16AA17AAFFC0F10104A904
:100FF00015A926A937A91C141D041E041F0404F5F5
:1010000010161106120613064CF46C157D058E059C
:101010009F055CF52281211157C027C001151105DC
:101020002105310509F450C06C157D058E059F051D
:101030000CF04AC0F1018281882309F445C039C00F
:101040001016110612061306FCF40027112798014A
:101050000C191D092E093F096017710782079307B4
:1010600024F4F1012281222379F19B01AC0188272C
:101070009927DC01821B930BA40BB50BF10184AB08
:1010800095ABA6ABB7AB20C0011511052105310505
:10109000D9F08824992454018C189D08AE08BF0803
:1010A000681579058A059B057CF4F101828181111F
:1010B0000BC030952095109501951F4F2F4F3F4F36
:1010C00004AB15AB26AB37ABF10184A895A8A6A855
:1010D000B7A881149104A104B10491F480AD91AD3D
:1010E000A2ADB3AD84AF95AFA6AFB7AF81E01C148E
:1010F0001D041E041F040CF080E0F101828341C036
:10110000F101C4ACD5ACE6ACF7ACA7019601C701C0
:10111000B6010E94071E2B013C01C501B4010E94CB
:10112000821C20E030E040E850E40E94E11C20E016
:1011300030E040E85FE30E94071E9B01AC01C30161
:10114000B2010E94731E9B01AC01C701B6010E944F
:10115000061E7B018C01F101E05CFF4F6080718015
:10116000C280D3809301A6010E941B1F181614F0A1
:1011700073018601A701B801F10144AF55AF66AF15
:1011800077AFFFEF8F1A9F0AAF0ABF0AF10184AA57
:1011900095AAA6AAB7AA24AD35AD46AD57ADCA01EA
:1011A000B90129833A834B835C830E94EC1EF101D1
:1011B00064A375A386A397A329813A814B815C819F
:1011C00060E074E284E799E40E94731EF101648B8D
:1011D000758B868B978B2281211107C0DC01CB0197
:1011E000B058848B958BA68BB78B0F900F900F9078
:1011F0000F90DF91CF911F910F91FF90EF90DF90B3
:10120000CF90BF90AF909F908F907F906F905F90A6
:101210004F903F902F9008954F925F926F927F92E0
:101220008F929F92AF92BF92CF92DF92EF92FF92F6
:10123000CF93DF93EC016A017B0120E030E0A9014C
:10124000C701B6010E947B1C87FF04C0F7FAF09427
:10125000F7F8F0948C8C9D8CAE8CBF8CA701960116
:10126000C501B4010E947B1C882309F449C06CA904
:101270007DA98EA99FA90E94821C2B013C01A70178
:101280009601C501B4010E94731E9B01AC01C3010C
:10129000B2010E94E11C0E94E51E6CAB7DAB8EABDF
:1012A0009FABA701960160E070E080E090E40E94AF
:1012B000731E0E94261F26E53EE04DE25FE30E947A
:1012C000E11C20E034E244E759E40E94E11C68AFED
:1012D00079AF8AAF9BAFCC8EDD8EEE8EFF8ECE01C6
:1012E000DF91CF91FF90EF90DF90CF90BF90AF90C4
:1012F0009F908F907F906F905F904F900C949E077F
:10130000DF91CF91FF90EF90DF90CF90BF90AF90A3
:101310009F908F907F906F905F904F900895CF92A5
:10132000DF92EF92FF920F931F93CF93DF938C0185
:10133000D62EEA01FC01E758FF4F8081E62EF12C02
:10134000882309F460C060E0F80183850E94DF050E
:101350008D2D0E94740CF8018583EE0CEF2CEE1C91
:10136000FF08EF2869F08B810E94740C8A810E942B
:10137000740C89810E94740C88810E94740CE2C0F4
:101380000E94B90C0E94B90C61E0F80183850E94AB
:10139000DF0560E0F80183850E94DF058D2D0E9446
:1013A000740C80E00E94740C90E0A0E0B0E0BA2FD2
:1013B000A92F982F882788839983AA83BB8380E0ED
:1013C0000E94740C488159816A817B81482B762F59
:1013D000652F542F4427488359836A837B8380E099
:1013E0000E94740C488159816A817B81482B762F39
:1013F000652F542F4427488359836A837B8380E079
:101400000E94740C96C0CFB6F89480917904811133
:1014100027C0EBEBF2E08491EFECF2E09491E82F3F
:10142000F0E0EE0FFF1FE356FD4FA591B491EC9154
:10143000E92321F461E08AE00E94DF0561E08AE0AF
:101440000E9467068CB580618CBD8CB580648CBDB4
:1014500061E08DE00E94670661E08BE00E94670614
:10146000809179048F5F80937904CFBE8DE58CBD28
:1014700081E08DBD60E0F80183850E94DF058D2D40
:101480000E943C04F8018583EE0CEF2CEE1CFF0853
:10149000EF2869F08B810E943C048A810E943C0401
:1014A00089810E943C0488810E943C044BC00E94B8
:1014B000570C0E94570C61E0F80183850E94DF05FC
:1014C00060E0F80183850E94DF058D2D0E943C04B9
:1014D00080E00E943C0490E0A0E0B0E0BA2FA92F89
:1014E000982F882788839983AA83BB8380E00E94F2
:1014F0003C04488159816A817B81482B762F652F76
:10150000542F4427488359836A837B8380E00E9459
:101510003C04488159816A817B81482B762F652F55
:10152000542F4427488359836A837B8380E00E9439
:101530003C04488159816A817B81482B48835983C7
:101540006A837B8361E0F8018385DF91CF911F91EE
:101550000F91FF90EF90DF90CF900C94DF05CF922A
:10156000DF92EF92FF920F931F93AC014D5A5F4FA2
:10157000062F10E020E030E0302F2227112700272F
:101580000027112722273F70FA01C080D180E28016
:10159000F380F0EFFF220C291D292E293F29FA01A3
:1015A00000831183228333836CEE1F910F91FF9090
:1015B000EF90DF90CF900C948F090F931F93CF93F0
:1015C000DF93EC0168EC70E080E090E00E941A0785
:1015D0008F8198858F3F2FEF920739F061E00E944D
:1015E000670661E08F810E94DF058D859E858F3FB4
:1015F000EFEF9E0739F061E00E94670660E08D859D
:101600000E94DF0589859A858F3FFFEF9F0739F09C
:1016100061E00E94670660E089850E94DF0561E065
:101620008B850E94670661E08B850E94DF05FE01C5
:10163000E758FF4F8081882309F45AC061E0809108
:1016400084040E94670661E0809188040E94670616
:1016500060E0809186040E94670640918404509166
:101660008504FA01EB53FD4FE491E0938A04209145
:10167000860430918704F901EB53FD4FE491E09328
:101680008B048091880490918904FC01EB53FD4FF9
:10169000E491E0938C04FA01EF54FD4FE491F0E003
:1016A000EE0FFF1FE955FD4F4591549150938E0465
:1016B00040938D04F901EF54FD4FE491F0E0EE0FFB
:1016C000FF1FED56FD4F25913491309390042093E8
:1016D0008F04FC01EF54FD4FE491F0E0EE0FFF1F8B
:1016E000E955FD4F859194919093920480939104D4
:1016F000AE01415F5F4F60E8CE010E948F098E010D
:101700000D5A1F4FA8016CEECE010E948F09AE0149
:10171000495A5F4F6DEECE010E948F09AE01415ACA
:101720005F4F60EFCE010E948F09AE014D5E5F4FAB
:1017300060E9CE010E948F09F80180819181A28128
:10174000B381807F886080839183A283B383A80163
:101750006CEECE010E948F09F80180819181A281F7
:10176000B3819F77AE7F906880839183A283B38398
:10177000A8016CEECE010E948F0981E08C83DF917D
:10178000CF911F910F910895009769F0FC0101908E
:101790000020E9F73197AF01481B590BBC0183E9E1
:1017A00094E00C94990180E090E00895682F83E91B
:1017B00094E00C943002CF92DF92EF92FF926B0193
:1017C0007C0120E030E0A9010E947B1C87FF04C05F
:1017D000F7FAF094F7F8F094A70196016091E50507
:1017E0007091E6058091E7059091E8050E947B1CC9
:1017F000882309F457C0C092E505D092E605E0922F
:10180000E705F092E805A701960160E074E284E73D
:1018100099E40E94731E60930D0670930E068093E8
:101820000F06909310068091010690910206A091F8
:101830000306B0910406181619061A061B0694F53D
:101840006091E1057091E2058091E3059091E405D6
:101850009B01AC010E94E11C6B017C016091E905D8
:101860007091EA058091EB059091EC059B01AC012C
:101870000E94071E9B01AC01C701B6010E94731EA6
:101880000E94E51E60930106709302068093030692
:10189000909304068DEC95E0FF90EF90DF90CF9051
:1018A0000C949E07FF90EF90DF90CF9008950CB4BA
:1018B00005FC0DC01EBC00000DB407FEFDCF9EB59B
:1018C0001EBC00000DB407FEFDCF8EB508951EBCF2
:1018D00000000DB407FEFDCF8EB51EBC00000DB498
:1018E00007FEFDCF9EB5089527E030E0A0E0682F09
:1018F00070E0B22FE0918D04F0918E0490918A04F3
:10190000AB01022E02C0559547950A94E2F78081FB
:1019100040FF02C0982B02C0909598239083E091DD
:101920009104F0919204908180918C04892B8083A2
:10193000E0918F04F0919004408180918B044823C2
:1019400081E090E011F480E090E001C0880FBA954A
:10195000EAF78A2BA82FE0919104F091920450812C
:1019600040918C044095452340832150310908F66D
:101970000895CF9380E00E94740CC82F80E00E94ED
:10198000740C2C2F30E0322F2227A901482BCA01DA
:10199000CF9108958F929F92AF92BF92DF92EF9274
:1019A000FF920F931F93CF93DF93EC017B018EEA9D
:1019B00097E4A1EEBDE388839983AA83BB8380E08B
:1019C00090E00E94801C25ED34E045E352E40E9443
:1019D000E11C20E030E04AE754E40E94731E4B0112
:1019E0005C0128EB3EE145E05EE30E94E11C26E657
:1019F00036E646EA5EE30E94731E20E030E040E8EF
:101A00005FE30E94061E0E94EC1ED62E8E010D5A28
:101A10001F4F8FE08D1578F1F80180819181A281AF
:101A2000B381A26080839183A283B383A8016CEE0B
:101A3000CE010E948F092AE037ED43EA5CE368811A
:101A400079818A819B810E94071E9B01AC01C5019F
:101A5000B4010E94E11C2CEE31E548E35EE30E94F4
:101A6000731E20E030E040E85FE30E94061E0E9403
:101A7000EC1ED62E16C0A8016CE6CE010E948F097E
:101A8000F80180819181A281B381A1FF0AC0AD7F5D
:101A900080839183A283B383A8016CEECE010E9460
:101AA0008F098D2D90E0A0E0B0E0BA2FA92F982FDC
:101AB000882788279F71AA27BB274B895C896D8956
:101AC0007E89507E842B952BA62BB72B8B8B9C8BE2
:101AD000AD8BBE8B8E010D5E1F4FA80160E9CE015C
:101AE0000E948F096D2D70E080E090E00E94821CC2
:101AF00020E030E040E05FE30E94E11C0E94EC1E29
:101B00006F718B899C89AD89BE89807E862B8B8B7A
:101B10009C8BAD8BBE8BA80160E9CE010E948F0922
:101B2000C958DF4FF982E882DF91CF911F910F9161
:101B3000FF90EF90DF90BF90AF909F908F900895AF
:101B4000CF92DF92EF92FF92209195063091960608
:101B50006901330FEE08FF089B01AC012C193D0908
:101B60004E095F0969017A0135EBC316D104E1041E
:101B7000F1043CF048E6C41A41E0D40AE108F10857
:101B80000DC05CE4C5165FEFD506E506F50634F436
:101B900088E6C80E81E0D81EE11CF11CA0E9B1E086
:101BA000A70196010E94B51D9B01AC01A0918B0677
:101BB000B0918C060E94C21F28E631E040E050E060
:101BC0000E949D1F2093A4063093A5064093A6066D
:101BD0005093A7068091D9059091DA05A091DB0575
:101BE000B091DC05BA01A901480F591F6A1F7B1F7C
:101BF0008091DD059091DE05A091DF05B091E005B3
:101C000084179507A607B70761F04093DD05509349
:101C1000DE056093DF057093E0058DEC95E00E9492
:101C20009E0780919506909196068C0D9D1D883695
:101C300021E0920714F08856914090939606809385
:101C4000950640918B0650918C0680E991E0489F63
:101C50009001499F300D589F300D1124032E000C28
:101C6000440B550BC701B6010E949D1FFF90EF90DA
:101C7000DF90CF9008958F929F92AF92BF92CF92B4
:101C8000DF92EF92FF922091BA053091BB05690176
:101C9000330FEE08FF089B01AC012C193D094E09DA
:101CA0005F0969017A01CA01B9010E94821C4B01D6
:101CB0005C018091B0059091B105BC01990F880B32
:101CC000990B0E94821C20E030E048E453E40E941B
:101CD000E11C20E030E040E05FE30E94E11C9B015A
:101CE000AC01C501B4010E94E11C2AE939E949E9C6
:101CF0005FE30E94731E0E94E51E6093C905709306
:101D0000CA058093CB059093CC050E94821C20E0ED
:101D100030E0A9010E941B1F4091450550914605E6
:101D2000609147057091480587FD14C04F7E409330
:101D3000450550934605609347057093480545E473
:101D400055E060E886E395E00E948F0981E080938A
:101D5000C80512C040614093450550934605609305
:101D600047057093480545E455E060E886E395E053
:101D70000E948F091092C8056091BA057091BB0549
:101D8000C60ED71ED092BB05C092BA056091C90598
:101D90007091CA058091CB059091CC05FF90EF9092
:101DA000DF90CF90BF90AF909F908F9008950F934A
:101DB0001F93CF93DF938C01C0E0D0E0F801EC0FCC
:101DC000FD1F6491662371F0E0919304F0919404F7
:101DD0000190F081E02D83E994E00995892B11F0C1
:101DE0002196ECCFCE01DF91CF911F910F910895F5
:101DF000CF93DF930E94D70EEC0188E594E00E9418
:101E0000C40B8C0F9D1FDF91CF910895FC0144817D
:101E1000558180913405909135058417950780F0A0
:101E20008091300590913105009751F0608171816A
:101E30006115710529F00E94DF2121E0892B09F04D
:101E400020E0822F0895CF93DF93CDB7DEB7AB9715
:101E50000FB6F894DEBF0FBECDBF789484B5826014
:101E600084BD84B5816084BD85B5826085BD85B53E
:101E7000816085BD80916E00816080936E001092BC
:101E80008100809181008260809381008091810037
:101E900081608093810080918000816080938000C8
:101EA0008091B10084608093B1008091B000816026
:101EB0008093B00080917A00846080937A00809152
:101EC0007A00826080937A0080917A0081608093AA
:101ED0007A0080917A00806880937A001092C10025
:101EE000E091A304F091A40482E08083E0919F0438
:101EF000F091A0041082E091A104F091A2048FEC73
:101F000080831092AB04E091A704F091A80486E0CE
:101F10008083E091A504F091A60480818061808394
:101F2000E091A504F091A604808188608083E0910F
:101F3000A504F091A604808180688083E091A504C7
:101F4000F091A60480818F7D808382E390E0A0E001
:101F5000B0E08093970490939804A0939904B09371
:101F60009A0461E083E00E94670687B1837F87B9A6
:101F700088B1837F88B988B18C6088B960E170E0EE
:101F800080E395E00E94640481E196E00E94DD0A0E
:101F900060E081E196E00E94AF0A60EB74E081E1CD
:101FA00096E00E94CA0C8091200690912106A09193
:101FB0002206B09123068460809320069093210628
:101FC000A0932206B093230640E256E060E881E148
:101FD00096E00E948F0960E070E08AEF94E40E942E
:101FE000DB0B40E050E06AEF74E48DEC95E00E947A
:101FF0000C0900E011E010938C0600938B0680E939
:1020000091E0909396068093950660E081E196E0DA
:102010000E94AF0A10938C0600938B0668E572E06D
:1020200081E196E00E94CA0C60E070E88BE395E4E1
:102030000E94DB0B40E050E06AE774E48DEC95E031
:102040000E940C0960E08091A8060E94670686E362
:1020500095E00E94DD0A62E086E395E00E94AF0A07
:1020600080E490E09093B1058093B0051092C9058B
:102070001092CA051092CB051092CC0560E273E075
:1020800086E395E00E94CA0C60E08091C2050E9440
:10209000670660E08091C4050E94670661E08EE0FB
:1020A0000E94DF0561E08FE00E94DF0562E370E0DF
:1020B00080E090E00E941A0760E086E00E94DF0561
:1020C00060E08AE00E94DF0564EC7FEF8FEF9FEF16
:1020D0000E943B0E10929606109295061092BB0538
:1020E0001092BA0561E08EE00E94DF0560E08FE0AB
:1020F0000E94DF051092600410925F0410925E044B
:1021000010925D0410926E0410926D048BE190E0C9
:102110009093700480936F04109272041092710473
:102120007CE0272E312C96B1892F887092FF20C039
:1021300081112DC68091C805882309F416C66091C7
:10214000C9057091CA058091CB059091CC050E947C
:10215000821C20E030E0A9010E947B1C882309F446
:1021600004C628E230E03093BB052093BA05FDC5D4
:10217000882309F40CC68091C805811115C06091AF
:10218000C9057091CA058091CB059091CC050E943C
:10219000821C20E030E0A9010E947B1C882321F0F2
:1021A0001092BB051092BA056091C9057091CA05DD
:1021B0008091CB059091CC050E94821C20E030E0FC
:1021C000A9010E947B1C87FFE2C51092C9051092ED
:1021D000CA051092CB051092CC0580E04091C9054C
:1021E0005091CA056091CB057091CC05452B462BCB
:1021F000472B09F449C0882309F446C061E0809167
:10220000B6050E94DF0583E290E00197F1F760E0F8
:102210008091B6050E94DF056091C9057091CA05DD
:102220008091CB059091CC050E94821C2B013C0132
:1022300020E030E0A9010E941B1F18164CF420E09A
:1022400030E040E85FE3C301B2010E94061E11C006
:1022500020E030E0A901C301B2010E947B1C87FF8E
:1022600015C020E030E040E85FE3C301B2010E9406
:10227000071E0E94E51E6093C9057093CA058093EE
:10228000CB059093CC0502C080E001C081E0809333
:1022900078048091F1059091F205A091F305B09139
:1022A000F405892B8A2B8B2B09F452C00E94F5066A
:1022B0002B013C018091F5059091F605A091F70561
:1022C000B091F805B301A201481B590B6A0B7B0BB7
:1022D0008091F1059091F205A091F305B091F4057C
:1022E000481759076A077B0798F12091CF0580911D
:1022F000D9059091DA05A091DB05B091DC05222388
:1023000021F00196A11DB11D03C00197A109B109DA
:102310008093D9059093DA05A093DB05B093DC0593
:102320004091D9055091DA056091DB057091DC058B
:102330008DEC95E00E94F7034092F5055092F6056A
:102340006092F7057092F8058DEC95E00E949E076B
:1023500020E030E0A9016091E1057091E2058091F3
:10236000E3059091E4050E947B1C91E0811116C069
:102370000091DD051091DE052091DF053091E0052B
:102380004091D9055091DA056091DB057091DC052B
:10239000041715072607370709F490E09093770490
:1023A00080917804811101C0892F809376049091E7
:1023B0007504882341F091111EC061E08EE00E94F7
:1023C000DF0561E015C09923B1F084E190E09093BE
:1023D00074048093730480917104909172049093BB
:1023E0006E0480936D0461E08EE00E94DF0560E082
:1023F0008FE00E94DF0580915C04882309F4D4C239
:102400001BA21AA21DA21CA21FA21EA2609130052F
:10241000709131056115710541F04091340550917D
:102420003505CE0182960E948B0468EB71E0CE01E7
:1024300082960E944504811111C06DEB71E0CE01BE
:1024400082960E944504811112C062EC71E0CE01B7
:1024500082960E94450481110AC09BC4C12CD12CD4
:10246000A12CB12CE12CF12C01E010E096C0C12C84
:10247000D12CA12CB12CE12CF12C0DE010E08DC061
:1024800069ED71E0CE0182960E9445048111C7C4B6
:1024900028E030E040E050E0BE016E5D7F4FCE01AD
:1024A00001960E94401964EE71E0CE0101960E94EF
:1024B0004504182FCE0101960E94D7041111C6C4FD
:1024C00029E030E040E050E0BE016E5D7F4FCE017C
:1024D00001960E9440196DEE71E0CE0101960E94B6
:1024E0004504182FCE0101960E94D704111108C58A
:1024F00027E030E040E050E0BE016E5D7F4FCE014E
:1025000001960E94401967EF71E0CE0101960E948A
:102510004504182FCE0101960E94D704112309F417
:102520002BC56BEB71E0CE0101960E94DC04BE016D
:102530006F5F7F4FCE0182960E942019182FCE0127
:1025400001960E94D704112309F424C62AE030E042
:1025500047E050E0BE016E5D7F4FCE0101960E94C4
:102560004019CE0101960E9403192B013C016B0119
:10257000CE0101960E94D70481E080935C042FEF86
:102580004216510409F008F40EC6C12CD12CA12C1E
:10259000B12CE12CF12C0CE110E080E0809364047C
:1025A0001093660400936504F0926804E092670457
:1025B000B0926A04A0926904D0926C04C0926B0439
:1025C00090926E0480926D042BE130E030937004A1
:1025D00020936F04CE0182960E94D70480916404F8
:1025E000882309F416C10230110589F4809176041C
:1025F0008111D2C0B7010F2C000C880B990B0E94DF
:102600003B0EB5010B2C000C880B990B1EC0023140
:102610001105F1F4809176048111BEC0109272040C
:102620001092710480E290E09093680480936704B4
:1026300060E270E080E090E00E943B0E10926A043D
:102640001092690460E070E0CB010E94A00D9EC171
:102650000731110599F58091760481119DC0409054
:102660007104509072043BE14316510408F061C1BB
:10267000C201880F991F880F991FFC01EA5FFE4F66
:102680003F01608171817093680460936704072E35
:10269000000C880B990B0E943B0EF3016281738141
:1026A00070936A0460936904072E000C880B990BE1
:1026B0000E94A00DFFEF4F1A5F0A69C00B31110590
:1026C00089F580917604811167C0809171049091A1
:1026D00072044B970CF02DC1909272048092710499
:1026E000C401880F991F880F991F9C012A5F3E4FD4
:1026F0003901F90160817181709368046093670406
:10270000072E000C880B990B0E943B0EF30162818F
:10271000738170936A0460936904072E000C880B20
:10272000990B93CF08311105B9F580917604811189
:1027300033C04090710450907204141415040CF0CE
:10274000F8C0C201880F991F880F991F9C01225061
:102750003F4F3901F9016081718170936804609382
:102760006704072E000C880B990B0E943B0EF301A7
:102770006281738170936A0460936904072E000C70
:10278000880B990B0E94A00DF1E04F1A510850924E
:10279000720440927104FAC0C8018B7F029759F00D
:1027A0000B31110541F0C80141978230910518F0B5
:1027B0000697029770F580917604882351F10230D4
:1027C000110519F48EE090E0C6C00231110519F42C
:1027D0008FE190E0C0C00731110519F48DE190E060
:1027E000BAC00831110519F48EE190E0B4C001318E
:1027F000110519F480E290E0AEC00630110519F41D
:1028000085E290E0A8C00B311105E1F681E290E08D
:10281000A2C0D7FC61C00031110509F05DC086017E
:10282000112761E083E00E9467060115110511F48C
:1028300060E004C00F3F110529F461E083E00E94CD
:10284000DF0543C0E9EDF0E0E491E330F9F048F44E
:10285000E130B9F0E230A1F584B5806284BD08BDF5
:1028600034C0E730E9F0E83019F1E43049F58091FF
:10287000800080628093800010938B0000938A0018
:1028800024C084B5806884BD07BD1FC080918000CE
:10289000806880938000109389000093880015C0A1
:1028A0008091B00080688093B0000093B3000DC0A9
:1028B0008091B00080628093B0000093B40005C0A6
:1028C000003811050CF0B9CFB3CF20E130E03093E0
:1028D0007404209373045EC00C31110509F456C0D2
:1028E0000630110559F464EC7FEF8FEF9FEF0E94E3
:1028F0003B0E109272041092710448C0063211050A
:1029000009F444C00732110509F440C00131110532
:1029100039F462E370E080E090E00E943B0E92CEDA
:102920000A31110599F10130110581F10C301105C1
:1029300029F430927404209273042CC001151105FF
:1029400029F4109274041092730424C00430110509
:1029500039F484E090E090937404809373041AC077
:102960000B30110599F00D30110581F00F30110574
:1029700069F00232110539F4E3E2F0E0F0937404F7
:10298000E093730407C00432110599F610937404A0
:10299000009373046AE574E080E395E00E94B60456
:1029A0001092640410925C04E0917304F09174043A
:1029B0001E161F060CF0D2C13197E732F10508F060
:1029C000C1C1EC5CFF4F0C94BC1F81E492E00E94FB
:1029D000C40B8AE090E00E94D60B86E492E0B4C17A
:1029E00081E592E0B1C180E692E0AEC180917604CB
:1029F000811103C08FE692E002C08EE792E00E9450
:102A0000C40B8AE090E00E94D60B8DE892E09CC156
:102A10008CE992E099C18BEA92E096C18BEA92E050
:102A200002C085ED92E00E94C40B8AE090E00E9413
:102A3000D60B8EEB92E088C184EE92E0F4CF85EF66
:102A400092E082C184E093E07FC183E193E07CC1A6
:102A50008EEB92E00E94C40B1092630477C183E274
:102A600093E072C184EE92E06FC185E393E06CC1A4
:102A70008FE393E00E94C40B8AE090E00E94D60BA3
:102A80008EE493E061C183E492E00E94F80E86E256
:102A900092E00E94F80E8FEF91E00E94F80E8DED0B
:102AA00091E00E94F80E8BEB91E00E94F80E8EE907
:102AB00091E00E94F80E8DE791E00E94F80E8AE501
:102AC00091E00E94F80E8FE391E00E94F80E8FE1F2
:102AD00091E00E94F80E87E091E00E94F80E8AEEE5
:102AE00090E0B0C081E592E00E94C40B8AE090E0E3
:102AF0000E94D60B8DE593E027C18BEA92E00E94FD
:102B0000C40B8AE090E00E94D60B8CE693E01CC1D7
:102B100085EF92E00E94C40B8AE090E00E94D60B01
:102B20008FE793E011C184E093E00E94C40B8AE038
:102B300090E00E94D60B8EE893E006C184EE92E00E
:102B40000E94C40B8AE090E00E94D60B8DE993E0CE
:102B5000FBC085ED92E00E94C40B8AE090E00E94E9
:102B6000D60B8EEA93E0F0C083E193E00E94C40BA1
:102B70008AE090E00E94D60B8DEB93E0E5C08DECEF
:102B800093E00E94C40B8AE090E00E94D60B8EED89
:102B900093E0DAC085E892E00E94D70E8AE090E0E8
:102BA0000E94D60B8BE792E00E94D70E82E792E05C
:102BB0000E94D70E88E692E00E94D70E84E692E04B
:102BC0000E94D70E80E090E00E949F1D082E000C0E
:102BD000990B0E94D60B81E090E00E949F1D082E69
:102BE000000C990B0E94D60B82E090E00E949F1D82
:102BF000082E000C990B0E94D60B83E090E00E94F7
:102C00009F1D082E000C990B0E94D60B84E090E0CB
:102C10000E949F1D082E000C990B0E94D60B85E088
:102C200090E00E949F1D082E000C990B0E94D60B6D
:102C30008BE592E00E94D70E82E592E00E94D70ECB
:102C400080E592E00E94D70E81C08AEE93E07CC0BE
:102C500089EF93E00E94C40B8AE090E00E94D60BBB
:102C600087E094E071C08EE194E06EC08CE294E065
:102C70000E94C40B8AE090E00E94D60B8AE394E0A5
:102C80000E94C40B80917104909172040A971CF405
:102C900082E494E002C083E494E00E94C40B40907C
:102CA000710450907204052C000C6608770877FEBA
:102CB00028C0E0919304F09194040190F081E02DFC
:102CC0006DE283E994E0099522273327A9012419AD
:102CD00035094609570919A28E010F5D1F4FCA0118
:102CE000B9012AE030E040E050E00E947B1F605DC7
:102CF000F80162938F01211531054105510579F7DE
:102D000017C0A301920119A28E010F5D1F4FCA01C6
:102D1000B9012AE030E040E050E00E947B1F605D96
:102D2000F80162938F01211531054105510579F7AD
:102D3000C8010E94C40B82EE93E00E94C40B87E49A
:102D400094E002C085E494E00E94C40B8AE090E025
:102D50000E94D60B10927404109273048091760432
:102D6000809375040E948105DEC96091C905709148
:102D7000CA058091CB059091CC050E94821C20E071
:102D800030E0A9010E941B1F18160CF41ECA81E036
:102D900025CA69E474E0CE0182960E944504882326
:102DA000E9F0E0906704F0906804E114F10409F49C
:102DB000DCC1E0906904F0906A04E114F10409F4C4
:102DC000D4C110926304812C912CC12CD12CA12C44
:102DD000B12CE12CF12C02E110E0F2C067EC71E0C3
:102DE000CE0182960E944504882341F081E08093C1
:102DF0006304C12CD12C07E110E0D0CB60ED71E071
:102E0000CE0182960E944504882309F439CB81E0E3
:102E100080936304C12CD12C08E110E0BFCBE0907B
:102E20006704F090680492E3E916F10409F4A6C17E
:102E300010926304812C912CC12CD12CA12CB12C8B
:102E400062E3E62EF12C01E110E0BAC06BEB71E019
:102E5000CE0101960E94DC04BE016F5F7F4FCE0160
:102E600082960E942019182FCE0101960E94D70445
:102E7000112309F48CC12BE030E048E050E0BE01A2
:102E80006E5D7F4FCE0101960E944019CE010196E2
:102E90000E9403192B013C01CE0101960E94D70428
:102EA0002FE030E04BE050E0BE016E5D7F4FCE0181
:102EB00001960E944019CE0101960E940319AB01B0
:102EC000BC01CE01019648A759A76AA77BA70E941B
:102ED000D70481E080935C04C2010A9648A559A5F5
:102EE0008F36910508F056C14936E1E05E0708F0DB
:102EF00051C172015A011092630402E010E060C0F7
:102F00006BEB71E0CE0101960E94DC04BE016F5FA5
:102F10007F4FCE0182960E942019182FCE01019674
:102F20000E94D704112309F435C12CE030E049E0B8
:102F300050E0BE016E5D7F4FCE0101960E944019A8
:102F4000CE0101960E9403192B013C01709362048B
:102F500060936104CE0101960E94D70481E08093C2
:102F60005C04FCE14F16510408F014C18093630423
:102F700042010BE110E012CB6FEF71E0CE018296BF
:102F80000E944504811116C168E072E0CE0182966C
:102F90000E9445048823B1F0E0906704F090680433
:102FA000E114F10409F40BC110926304812C912CFB
:102FB000C12CD12CA12CB12CE12CF12C06E010E07D
:102FC00081E0ECCA61E172E0CE0182960E94450484
:102FD0008111FEC06AE172E0CE0182960E94450432
:102FE0008111FBC062E272E0CE0182960E9445042C
:102FF0008111F6C06BE272E0CE0182960E94450418
:103000008111F3C028E030E040E050E0BE016E5D89
:103010007F4FCE0101960E94401966E372E0CE0117
:1030200001960E944504182FCE0101960E94D704F4
:10303000112309F466C06BEB71E0CE0101960E948A
:10304000DC04BE016F5F7F4FCE0182960E94201983
:10305000182FCE0101960E94D704112309F4CAC08B
:1030600068E070E0CE0182960E940E19FC0160813A
:1030700080E090E00E94861969E070E0CE018296BF
:103080000E940E19FC01608181E090E00E94861987
:103090006AE070E0CE0182960E940E19FC01608108
:1030A00082E090E00E9486196BE070E0CE0182968B
:1030B0000E940E19FC01608183E090E00E94861955
:1030C0006CE070E0CE0182960E940E19FC016081D6
:1030D00084E090E00E9486196DE070E0CE01829657
:1030E0000E940E19FC01608185E090E00E94861923
:1030F000C12CD12CA12CB12CE12CF12C0BE010E037
:103100004CCA60E070E0CE0182960E940E19FC016C
:103110008081082E000C990B8F539240D9F420E047
:10312000F12C01E010E0B801CE01829628A70E94A0
:103130000E19FC018081082E000C990B28A58B5BD1
:10314000914011F42CE0F12C0F5F1F4F003111055D
:1031500051F702C02CE0F12C022F1F2DC12CD12CD5
:10316000A12CB12CE12CF12C18CA812C912CC12C52
:10317000D12CA12CB12C04E210E00FCA812C912C8F
:10318000C12CD12CA12CB12C07E210E006CA50E5CD
:10319000852E912CC12CD12CA12CB12CE12CF12C01
:1031A00003E010E0FAC9A12CB12CE12CF12C00E1D4
:1031B00010E0F3C9C12CD12C04E010E0EEC9812C41
:1031C000912CC12CD12CA12CB12C06E210E0E5C928
:1031D000C12CD12C08E010E0E0C90AE110E0DDC903
:1031E000C12CD12C0FE010E0D8C9C12CD12C02E2A7
:1031F00010E0D3C9C12CD12CA12CB12CE12CF12C85
:103200000AE010E0CAC9FC0180819181009711F0A9
:103210000C943F1C60E070E0CB010895FC01248118
:1032200035816217730720F480819181009729F41A
:103230001092830483E894E00895860F971F089501
:10324000FC0124813581FB01448155812417350718
:10325000A0F0FC0180819181009779F0FB016081F1
:1032600071816115710549F0241B350B820F931F85
:103270000E94CF2121E0892B09F020E0822F0895C0
:10328000BF92CF92DF92EF92FF920F931F93CF9353
:10329000DF937C016B018A01E9012417350720F4D3
:1032A000812F8901C42FD82F6AE574E0C7010E94DD
:1032B000DC04D60114968D919C9115970817190777
:1032C000D0F48C179D0708F4EC01D601ED91FC9128
:1032D0001197EC0FFD1FB08010824D915C91BA01E7
:1032E000600F711FC7010E94B604D601ED91FC91D9
:1032F000EC0FFD1FB082C701DF91CF911F910F919D
:10330000FF90EF90DF90CF90BF9008950C94A71D91
:1033100080E395E00C94D7042F923F924F925F92F6
:103320006F927F928F929F92AF92BF92CF92DF92D5
:10333000EF92FF920F931F93CF93DF93E3E9F4E0B3
:103340001382128288EE93E0A0E0B0E0848395833C
:10335000A683B78386E791E09183808385EC90E034
:103360009587848784EC90E09787868780EC90E04F
:10337000918B808B81EC90E0938B828B82EC90E040
:10338000958B848B86EC90E0978B868B118E128EBA
:10339000138E148ECDECD5E08EEA482E87E4582E9D
:1033A00081EE682E8DE3782E40921106509212061F
:1033B000609213067092140610921706109220065F
:1033C00010922106109222061092230610922406D3
:1033D00010922506109226061092270610922806B3
:1033E0001092290610922A0610922B0610922C0693
:1033F00010922D0610922E0610922F061092300673
:103400001092310610923206109233061092340652
:103410001092350610923606109237061092380632
:103420001092390610923A0610923B0610923C0612
:1034300010923D0610923E0610923F0610924006F2
:1034400010924106109242061092430610924406D2
:1034500010924506109246061092470610924806B2
:103460001092490610924A0610924B0610924C0692
:1034700010924D0610924E0610924F061092500672
:103480001092510610925206109253061092540652
:103490001092550610925606109257061092580632
:1034A0001092590610925A0610925B0610925C0612
:1034B00010925D0610925E0610925F0610926006F2
:1034C00010926106109262061092630610926406D2
:1034D00010926506109266061092670610926806B2
:1034E0001092690610926A0610926B0610926C0692
:1034F00010926D0610926E0610926F0690E8C92E1B
:1035000094E0D92E95E0E92EF12CC0927006D0926D
:103510007106E0927206F092730610927406109291
:103520007506109276061092770610927806109221
:10353000790610927A0610927B0610927C06109201
:103540007D0610927E0610927F06109280061092E1
:1035500081061092820610928306109284061092C1
:1035600085061092860610928706109289061092A0
:10357000880610928A061092150626E0822E912C5B
:10358000909219068092180604E010E010931B0632
:1035900000931A0635E0232E312C30921D0620921E
:1035A0001C0642E1A42EB12CB0921F06A0921E066A
:1035B00088E891E09983888381E08B831C861D864F
:1035C0001E861F86188A198A1A8A1B8A1C8A1D8AD7
:1035D0001E8A1F8A80E090E0A0E8BFE3888F998F61
:1035E000AA8FBB8F1C8E1D8E1E8E1F8E88A399A343
:1035F000AAA3BBA31CA21DA21EA21FA221E030E011
:103600003DA72CA72FEF2FA718A619A61AA61BA611
:1036100024E02C8332E13D832E8325E02F831EA6F8
:103620001CAA1DAA1EAA1FAA18AE19AE1AAE1BAE5E
:103630001CAE1DAE1EAE1FAE80930D0690930E06FF
:10364000A0930F06B09310061A82188619861A8660
:103650001B86CE010E94A30640E050E060E87FE3B5
:10366000CE010E940C0990928E0680928D06B09237
:103670009006A0928F0610939206009391063092C6
:1036800094062092930682EA91E09983888382E0EF
:1036900090E09093A9068093A806E6E3F5E04082C7
:1036A00051826282738216821786108A118A128A68
:1036B000138A148A158A168A178A108E118E128E12
:1036C000138E148E158E168E178E10A211A212A2B2
:1036D00013A214A215A216A217A210A611A612A632
:1036E00013A614A615A616A617A610AA11AA12AA02
:1036F00013AA14AA15AA16AA17AA10AE11AE12AED2
:1037000013AE14AE15AE16AE109275051092760576
:1037100010927705109278051092790510927A052B
:1037200010927B0510927C0510927D0510927E050B
:1037300010927F05109280051092810510928205EB
:1037400010928305109284051092850510928605CB
:1037500010928705109288051092890510928A05AB
:1037600010928B0510928C0510928D0510928E058B
:1037700010928F051092900510929105109292056B
:103780001092930510929405C0929505D0929605DB
:10379000E0929705F09298051092990510929A057B
:1037A00010929B0510929C0510929D0510929E050B
:1037B00010929F051092A0051092A1051092A205EB
:1037C0001092A3051092A4051092A5051092A605CB
:1037D0001092A7051092A8051092A9051092AA05AB
:1037E0001092AB051092AC051092AE051092AD058B
:1037F0001092AF0514826AE070E07087678328E05A
:1038000030E03287218787E090E09487838749E022
:1038100050E056874587E0E1F0E0F093C305E09380
:10382000C205E1E1F0E0F093C505E093C4057093B3
:10383000B3056093B2055093B5054093B40530933A
:10384000B7052093B6059093B9058093B8056AE54E
:1038500074E080E395E0DF91CF911F910F91FF908D
:10386000EF90DF90CF90BF90AF909F908F907F9020
:103870006F905F904F903F902F900C94DC041F93BB
:10388000FC0199278827BC01E89411911032E9F3D3
:10389000193010F01E30C8F31B3251F01D3249F4BC
:1038A000689406C00E94661C610F711D811D911DE8
:1038B000119110531A30B0F33EF4909580957095A5
:1038C00061957F4F8F4F9F4F1F910895592F482F1C
:1038D000372F262F660F771F881F991F660F771FB8
:1038E000881F991F620F731F841F951F660F771F14
:1038F000881F991F08950E94BD1C08F481E0089557
:10390000E89409C097FB3EF4909580957095619579
:103910007F4F8F4F9F4F9923A9F0F92F96E9BB272F
:103920009395F695879577956795B795F111F8CFAB
:10393000FAF4BB0F11F460FF1BC06F5F7F4F8F4F16
:103940009F4F16C0882311F096E911C0772321F00C
:103950009EE8872F762F05C0662371F096E8862FA4
:1039600070E060E02AF09A95660F771F881FDAF7FB
:10397000880F9695879597F90895990F0008550F28
:10398000AA0BE0E8FEEF16161706E807F907C0F0E5
:1039900012161306E407F50798F0621B730B840BED
:1039A000950B39F40A2661F0232B242B252B21F4C7
:1039B00008950A2609F4A140A6958FEF811D811D67
:1039C00008950E94F41C0C94651D0E94571D38F048
:1039D0000E945E1D20F0952311F00C944E1D0C9456
:1039E000541D11240C94991D0E94761D70F3959F0F
:1039F000C1F3950F50E0551F629FF001729FBB27E6
:103A0000F00DB11D639FAA27F00DB11DAA1F649F81
:103A10006627B00DA11D661F829F2227B00DA11D34
:103A2000621F739FB00DA11D621F839FA00D611DBA
:103A3000221F749F3327A00D611D231F849F600DDB
:103A4000211D822F762F6A2F11249F5750409AF004
:103A5000F1F088234AF0EE0FFF1FBB1F661F771F90
:103A6000881F91505040A9F79E3F510580F00C945B
:103A70004E1D0C94991D5F3FE4F3983ED4F3869558
:103A800077956795B795F795E7959F5FC1F7FE2BFB
:103A9000880F911D9695879597F9089597F99F67D7
:103AA00080E870E060E008959FEF80EC08950024C6
:103AB0000A941616170618060906089500240A9493
:103AC00012161306140605060895092E0394000C19
:103AD00011F4882352F0BB0F40F4BF2B11F460FFA8
:103AE00004C06F5F7F4F8F4F9F4F089557FD9058D1
:103AF000440F551F59F05F3F71F04795880F97FBB2
:103B0000991F61F09F3F79F087950895121613066B
:103B10001406551FF2CF4695F1DF08C0161617069A
:103B20001806991FF1CF86957105610508940895CF
:103B3000E894BB2766277727CB0197F90895F99971
:103B4000FECF92BD81BDF89A992780B50895262FA2
:103B5000F999FECF1FBA92BD81BD20BD0FB6F89472
:103B6000FA9AF99A0FBE019608950E94F71DA59F33
:103B7000900DB49F900DA49F800D911D1124089568
:103B80002F923F924F925F926F927F928F929F926D
:103B9000AF92BF92CF92DF92EF92FF920F931F935B
:103BA000CF93DF93CDB7DEB7CA1BDB0B0FB6F8940C
:103BB000DEBF0FBECDBF09942A88398848885F844C
:103BC0006E847D848C849B84AA84B984C884DF80BD
:103BD000EE80FD800C811B81AA81B981CE0FD11DA1
:103BE0000FB6F894DEBF0FBECDBFED010895A29FC2
:103BF000B001B39FC001A39F700D811D1124911DC1
:103C0000B29F700D811D1124911D08955058BB273E
:103C1000AA270E941E1E0C94651D0E94571D38F095
:103C20000E945E1D20F039F49F3F19F426F40C9495
:103C3000541D0EF4E095E7FB0C944E1DE92F0E94F5
:103C4000761D58F3BA17620773078407950720F0AB
:103C500079F4A6F50C94981D0EF4E0950B2EBA2F6E
:103C6000A02D0B01B90190010C01CA01A001112482
:103C7000FF27591B99F0593F50F4503E68F11A162E
:103C8000F040A22F232F342F4427585FF3CF4695BF
:103C900037952795A795F0405395C9F77EF41F16E1
:103CA000BA0B620B730B840BBAF09150A1F0FF0FAB
:103CB000BB1F661F771F881FC2F70EC0BA0F621F97
:103CC000731F841F48F4879577956795B795F79587
:103CD0009E3F08F0B0CF9395880F08F09927EE0F1C
:103CE0009795879508950E94871E0C94651D0E94E4
:103CF0005E1D58F00E94571D40F029F45F3F29F0E7
:103D00000C944E1D51110C94991D0C94541D0E943D
:103D1000761D68F39923B1F3552391F3951B550B49
:103D2000BB27AA2762177307840738F09F5F5F4F8E
:103D3000220F331F441FAA1FA9F335D00E2E3AF0CD
:103D4000E0E832D091505040E695001CCAF72BD0E5
:103D5000FE2F29D0660F771F881FBB1F2617370736
:103D60004807AB07B0E809F0BB0B802DBF01FF2768
:103D700093585F4F3AF09E3F510578F00C944E1DDA
:103D80000C94991D5F3FE4F3983ED4F386957795A4
:103D90006795B795F7959F5FC9F7880F911D969521
:103DA000879597F90895E1E0660F771F881FBB1F7D
:103DB000621773078407BA0720F0621B730B840B2A
:103DC000BA0BEE1F88F7E09508950E94EC1E6894E8
:103DD000B1110C94991D08950E947E1D88F09F5783
:103DE00098F0B92F9927B751B0F0E1F0660F771F1F
:103DF000881F991F1AF0BA95C9F714C0B13091F015
:103E00000E94981DB1E008950C94981D672F782F9B
:103E10008827B85F39F0B93FCCF3869577956795D9
:103E2000B395D9F73EF490958095709561957F4F45
:103E30008F4F9F4F08950E94BD1C08F48FEF089587
:103E400019F416F40C94541D0C94661F0E947E1DE8
:103E5000B8F39923C9F3B6F39F57550B87FF0E9418
:103E6000741F0024A0E640EA90018058569597956B
:103E700028F4805C660F771F881F20F0261737070D
:103E8000480730F4621B730B840B202931294A2B1D
:103E9000A69517940794202531254A2758F7660FD1
:103EA000771F881F20F026173707480730F4620B6A
:103EB000730B840B200D311D411DA09581F7B901B5
:103EC000842F9158880F9695879508959F3F31F0DC
:103ED000915020F4879577956795B795880F911D38
:103EE0009695879597F9089591505040660F771FE2
:103EF000881FD2F70895A1E21A2EAA1BBB1BFD0151
:103F00000DC0AA1FBB1FEE1FFF1FA217B307E407B8
:103F1000F50720F0A21BB30BE40BF50B661F771F10
:103F2000881F991F1A9469F76095709580959095F0
:103F30009B01AC01BD01CF010895052E97FB1EF436
:103F400000940E94B41F57FD07D00E947B1F07FCFE
:103F500003D04EF40C94B41F5095409530952195A4
:103F60003F4F4F4F5F4F08959095809570956195A5
:103F70007F4F8F4F9F4F0895EE0FFF1F0590F491D5
:103F8000E02D0994B7FF0C94B51D0E94B51D821B4E
:103F9000930B0895CF93DF938230910510F482E064
:103FA00090E0E091AC06F091AD0620E030E0C0E09A
:103FB000D0E0309711F14081518148175907C0F086
:103FC0004817590761F482819381209719F09B83E8
:103FD0008A832BC09093AD068093AC0626C0211532
:103FE000310519F04217530718F49A01BE01DF0199
:103FF000EF010280F381E02DDCCF2115310509F1BD
:10400000281B390B2430310590F412968D919C9128
:1040100013976115710521F0FB019383828304C01E
:104020009093AD068093AC06FD01329644C0FD012D
:10403000E20FF31F81939193225031092D933C930A
:104040003AC02091AA063091AB06232B41F420916F
:104050000201309103013093AB062093AA06209110
:104060000001309101012115310541F42DB73EB712
:104070004091040150910501241B350BE091AA06E3
:10408000F091AB06E217F307A0F42E1B3F0B2817A5
:10409000390778F0AC014E5F5F4F2417350748F0C1
:1040A0004E0F5F1F5093AB064093AA0681939193E6
:1040B00002C0E0E0F0E0CF01DF91CF9108950F93CF
:1040C0001F93CF93DF93009709F48CC0FC013297C4
:1040D000138212820091AC061091AD0601151105F4
:1040E00081F420813181820F931F2091AA063091A3
:1040F000AB062817390779F5F093AB06E093AA06CB
:1041000071C0D80140E050E0AE17BF0750F41296DE
:104110002D913C911397AD012115310509F1D9017C
:10412000F3CF9D01DA013383228360817181860F91
:10413000971F8217930769F4EC0128813981260FB4
:10414000371F2E5F3F4F318320838A819B8193836A
:104150008283452B29F4F093AD06E093AC0642C070
:104160001396FC93EE931297ED01499159919E019C
:10417000240F351FE217F30771F480819181840FBA
:10418000951F029611969C938E938281938113962C
:104190009C938E931297E0E0F0E0D80112968D91F7
:1041A0009C911397009719F0F8018C01F6CF8D912F
:1041B0009C9198012E5F3F4F820F931F2091AA067A
:1041C0003091AB062817390769F4309729F410921B
:1041D000AD061092AC0602C0138212821093AB0699
:1041E0000093AA06DF91CF911F910F910895A0E04F
:1041F000B0E0EDEFF0E20C94C41DEC01009721F467
:10420000CB010E94CA1FB8C0FC01E60FF71F9C013A
:1042100022503109E217F30708F4ACC0D9010D911F
:104220001C91119706171707B0F00530110508F417
:104230009FC0C80104978617970708F499C00250D9
:104240001109061B170B019311936D937C93CF01FA
:104250000E945F208DC05B01A01AB10A4C01800E44
:10426000911EA091AC06B091AD0640E050E0E12C6B
:10427000F12C109709F44AC0A815B905D1F56D9035
:104280007C901197630182E0C80ED11CCA14DB0434
:1042900080F1A3014A195B096A0182E0C80ED11CB2
:1042A0001296BC9012971396AC91B5E0CB16D10440
:1042B00040F0B282A38351834083D9016D937C93F4
:1042C0000AC00E5F1F4FC301800F911FF901918338
:1042D0008083EB2DFA2FE114F10431F0D70113960E
:1042E000FC93EE93129744C0F093AD06E093AC06B6
:1042F0003FC08D919C9111974817590708F4AC0164
:104300007D0112960D90BC91A02DB3CF8091AA068D
:104310009091AB0688159905E1F446175707C8F444
:104320008091000190910101009741F48DB79EB7F3
:104330004091040150910501841B950BE817F90782
:10434000C8F4F093AB06E093AA06F9017183608389
:104350000FC0CB010E94CA1F7C01009759F0A80131
:10436000BE010E94C621CE010E945F20C70104C089
:10437000CE0102C080E090E0CDB7DEB7EEE00C9455
:10438000E01D81E090E0F8940C94ED21FB01DC014C
:1043900002C001900D9241505040D8F70895FB01A2
:1043A000DC018D91019080190110D9F3990B0895CA
:1043B000FB01DC0101900D920020E1F70895FB0163
:1043C000DC014150504030F08D910190801919F47A
:1043D0000020B9F7881B990B089511E0CEE6D1E0D3
:1043E00004C0FE010E94BC1F2196CF36D107C9F739
:0443F000F894FFCF6F
:1043F4000000AE06800020000000200078002000AD
:10440400F0001400F000140018011400400114001E
:104414000000140028001400500014007800140058
:10442400A0001400C8000A00D8000A00F0000A0026
:1044340008010A0020010A0038010A0050010A009C
:1044440000000A0018000A0030000A0048000A00B0
:1044540060000A0078000A0090000A00A8000A0020
:10446400C0000000000030029901C8017702F90180
:10447400D701EB0100000000D706A3062B06F703C3
:10448400E103A903880354033303DD029902000006
:104494000000D706A3062B06F703E103A90388034C
:1044A40054033303DD0299027B48427D0068656C46
:1044B400700048656C70007B62746E6578747D0072
:1044C4007B6274707265767D007B627463656E7462
:1044D40072657D007B6274676F746F20007B627409
:1044E400676F706F7320007B627476696220007B53
:1044F4006274726564797D007B62746C6F61647D43
:10450400007B6274657874647D007B6274706F7381
:104514007D007B6274696E666F7D007B6274736577
:10452400716E756D7D007B62747774736E20007B91
:10453400003C48423E003C4842205B5253505D3EA2
:10454400003C6274676F746F205B41434B5D3E00B7
:104554003C6274676F746F205B4552525D3E003C51
:10456400627472656479205B41434B5D3E003C623A
:104574007472656479205B4253595D3E003C6274F9
:1045840072656479205B5253505D3E003C627472E4
:10459400656479205B4552525D3E003C62747365EC
:1045A4007175656E6365205B41434B5D3E003C6203
:1045B400746D6F7665636F6D706C657465205B52A6
:1045C40053505D3E003C62746C6F6164205B4143F8
:1045D4004B5D3E003C627463656E747265205B41A2
:1045E400434B5D3E003C62746E657874205B4143CE
:1045F4004B5D3E003C627470726576205B41434BB8
:104604005D3E003C6274676F706F73205B41434B87
:104614005D3E003C62746C6F6164206F66205B4198
:10462400434B5D3E003C62746E6F74636C3E003CB1
:1046340062747774736E205B41434B5D3E003C6251
:10464400747774736E205B5253505D3E003C627409
:10465400676F746F205B4253595D3E003C62747314
:10466400657175656E6365205B4253595D3E003C20
:1046740062746E657874205B4253595D3E003C62FF
:104684007470726576205B4253595D3E003C6274DF
:1046940063656E747265205B4253595D3E003C62F3
:1046A400746C6F6164205B4253595D3E003C6274DC
:1046B400676F706F73205B4253595D3E003C6274B8
:1046C4007365716E756D205B41434B5D3E003C30FC
:1046D4003237205B5253505D3E003C6274636F6D11
:1046E40064205B4552527D3E003C627476696220D0
:1046F4005B41434B5D3E003C627476696261637466
:10470400697661746564205B5253505D3E003C627F
:1047140074766962205B4552525D3E003C6274705F
:104724006F73205B41434B5D3E003C6274706F735A
:1047340020003030003C3F3E007B6274736571752D
:0C474400656E63657D0068000D0A0000D2
:107E0000112484B714BE81FFF0D085E080938100F7
:107E100082E08093C00088E18093C10086E0809377
:107E2000C20080E18093C4008EE0C9D0259A86E02C
:107E300020E33CEF91E0309385002093840096BBD3
:107E4000B09BFECF1D9AA8958150A9F7CC24DD24C4
:107E500088248394B5E0AB2EA1E19A2EF3E0BF2EE7
:107E6000A2D0813461F49FD0082FAFD0023811F036
:107E7000013811F484E001C083E08DD089C08234E0
:107E800011F484E103C0853419F485E0A6D080C0E4
:107E9000853579F488D0E82EFF2485D0082F10E0AE
:107EA000102F00270E291F29000F111F8ED06801E7
:107EB0006FC0863521F484E090D080E0DECF843638
:107EC00009F040C070D06FD0082F6DD080E0C81688
:107ED00080E7D80618F4F601B7BEE895C0E0D1E017
:107EE00062D089930C17E1F7F0E0CF16F0E7DF06D8
:107EF00018F0F601B7BEE89568D007B600FCFDCFD4
:107F0000A601A0E0B1E02C9130E011968C91119780
:107F100090E0982F8827822B932B1296FA010C0160
:107F200087BEE89511244E5F5F4FF1E0A038BF0790
:107F300051F7F601A7BEE89507B600FCFDCF97BE46
:107F4000E89526C08437B1F42ED02DD0F82E2BD052
:107F50003CD0F601EF2C8F010F5F1F4F84911BD097
:107F6000EA94F801C1F70894C11CD11CFA94CF0C13
:107F7000D11C0EC0853739F428D08EE10CD085E9AC
:107F80000AD08FE07ACF813511F488E018D01DD067
:107F900080E101D065CF982F8091C00085FFFCCF94
:107FA0009093C60008958091C00087FFFCCF809118
:107FB000C00084FD01C0A8958091C6000895E0E648
:107FC000F0E098E1908380830895EDDF803219F02E
:107FD00088E0F5DFFFCF84E1DECF1F93182FE3DFCA
:107FE0001150E9F7F2DF1F91089580E0E8DFEE27F6
:047FF000FF270994CA
:027FFE00040479
:0400000300007E007B
:00000001FF
